:100000000C9483000C94B4000C94B4000C94B400D1
:100010000C94B4000C94B4000C94B4000C94B40090
:100020000C94B4000C94B4000C94B4000C94B40080
:100030000C94B4000C94B4000C94B4000C94B40070
:100040000C94B4000C94B4000C94B4000C94B40060
:100050000C94B4000C94B4000C94B4000C9483027F
:100060000C94B4000C94F7020C94CD020C94B400E0
:100070000C94B4000C94B4000C94B4000C94B40030
:100080000C94B4000C94B4000C94B4000C94B40020
:100090000C94B4000C94B4000C94B4000C94B40010
:1000A0000C94B4000C94B4000C94B4000C94B40000
:1000B0000C94B4000C94B4000C94B4000C94B400F0
:1000C0000C94B4000C94B4000C94B4000C94B400E0
:1000D0000C94B4000C94B4000C94B4000C94B400D0
:1000E0000C94B4000C9449040C9415010C944D012B
:1000F0000C94E4000C94F3000C94B6000C940701EB
:100100000C949A01490411241FBECFEFD1E2DEBF47
:10011000CDBF00E00CBF12E0A0E0B2E0EEE4F9E0F9
:1001200000E00BBF02C007900D92A233B107D9F7D0
:1001300022E0A2E3B2E001C01D92A43EB207E1F7C3
:1001400010E0C3E8D0E000E006C021970109802F4D
:10015000FE010E949804C238D10780E00807A9F781
:100160000E942D030C94A5040C940000CF92DF9202
:10017000EF92FF920F931F93CF93DF936C017A015D
:100180008B01C0E0D0E0CE15DF0581F0D8016D9184
:100190008D01D601ED91FC910190F081E02DC60119
:1001A0001995892B11F02196EECF7E01C701DF91C1
:1001B000CF911F910F91FF90EF90DF90CF90089516
:1001C000089580E090E00895FC01538D448D252F23
:1001D00030E0842F90E0821B930B541710F0CF96E1
:1001E000089501970895FC01918D828D981761F013
:1001F000828DDF01A80FB11D5D968C91928D9F5F5E
:100200009F73928F90E008958FEF9FEF0895FC0108
:10021000918D828D981731F0828DE80FF11D858DBB
:1002200090E008958FEF9FEF0895FC01918D228D4E
:10023000892F90E0805C9F4F821B91098F739927D3
:10024000089587E492E00E94150121E0892B09F4CA
:1002500020E0822F0895FC01848DDF01A80FB11DDD
:10026000A35ABF4F2C91848D90E001968F739927EC
:10027000848FA689B7892C93A089B1898C918370CA
:1002800080648C93938D848D981306C00288F389C3
:10029000E02D80818F7D80830895EF92FF920F93F0
:1002A0001F93CF93DF93EC0181E0888F9B8D8C8D22
:1002B000981305C0E889F989808185FD26C0F62E4E
:1002C0000B8D10E00F5F1F4F0F731127E02E8C8DE9
:1002D000E8120CC00FB607FCFACFE889F9898081D3
:1002E00085FFF5CFCE010E942B01F1CF8B8DFE0152
:1002F000E80FF11DE35AFF4FF0829FB7F8940B8F80
:10030000EA89FB89808180620AC09FB7F894EE89F0
:10031000FF896083E889F9898081837080648083A4
:100320009FBF81E090E0DF91CF911F910F91FF90EF
:10033000EF900895CF93DF93EC01888D8823C9F067
:10034000EA89FB89808185FD05C0A889B9898C91DE
:1003500086FD0FC00FB607FCF5CF808185FFF2CF79
:10036000A889B9898C9185FFEDCFCE010E942B0120
:10037000E7CFDF91CF91089580E090E0892B21F0C5
:100380000E942101811125C080E090E0892B41F07D
:1003900080E090E0892B21F00E94000081111CC0B8
:1003A00080E090E0892B41F080E090E0892B21F003
:1003B0000E940000811113C080E090E0892BA1F021
:1003C00080E090E0892B81F00E94000081110AC03A
:1003D00008950E940000D8CF0E940000E1CF0E9443
:1003E0000000EACF0C9400000895009769F0FC012A
:1003F00001900020E9F73197AF01481B590BBC0170
:1004000087E492E00C94B60080E090E008958F922B
:100410009F92AF92BF920F931F93CF93DF93CDB76D
:10042000DEB7A1970FB6F894DEBF0FBECDBF19A2FD
:10043000423008F44AE08E010F5D1F4F842E912C4C
:10044000A12CB12CA50194010E947604E62FB901DC
:10045000CA0101501109EA3014F4E05D01C0E95C01
:10046000D801EC93232B242B252B61F7C8010E9484
:10047000F501A1960FB6F894DEBF0FBECDBFDF9198
:10048000CF911F910F91BF90AF909F908F90089543
:10049000CF92DF92EF92FF92CF93DF936B017C01BB
:1004A0006DE287E492E00E944D01EC016627772718
:1004B000CB016C197D098E099F094AE00E94070251
:1004C0008C0F9D1FDF91CF91FF90EF90DF90CF9029
:1004D0000895CF93DF93BC01990F880B990B97FF79
:1004E00003C00E94480203C04AE00E940702EC01D8
:1004F00082E192E00E94F5018C0F9D1FDF91CF9168
:1005000008950E94A0041F920F920FB60F9211241B
:100510002F933F938F939F93AF93BF938091430209
:1005200090914402A0914502B0914602309142025E
:1005300023E0230F2D3720F40196A11DB11D05C026
:1005400026E8230F0296A11DB11D2093420280933D
:10055000430290934402A0934502B09346028091D7
:100560003E0290913F02A0914002B091410201965B
:10057000A11DB11D80933E0290933F02A0934002C3
:10058000B0934102BF91AF919F918F913F912F9175
:100590000F900FBE0F901F9018951F920F920FB6DD
:1005A0000F9211240BB60F922F933F934F935F93AB
:1005B0006F937F938F939F93AF93BF93EF93FF932B
:1005C00087E492E00E942B01FF91EF91BF91AF91E0
:1005D0009F918F917F916F915F914F913F912F915B
:1005E0000F900BBE0F900FBE0F901F9018951F928B
:1005F0000F920FB60F9211240BB60F922F938F9379
:100600009F93EF93FF93E0915702F09158028081FE
:10061000E0915D02F0915E0282FD12C090818091B6
:1006200060028F5F8F7320916102821751F0E09119
:100630006002F0E0E95BFD4F958F8093600201C09E
:100640008081FF91EF919F918F912F910F900BBE21
:100650000F900FBE0F901F901895CF93DF93CDB7DB
:10066000DEB72C970FB6F894DEBF0FBECDBF7894DF
:1006700084B5826084BD84B5816084BD85B58260A7
:1006800085BD85B5816085BD80916E008160809358
:100690006E001092810080918100826080938100C1
:1006A00080918100816080938100809180008160D1
:1006B000809380008091B10084608093B10080912C
:1006C000B00081608093B00080919100826080933F
:1006D00091008091910081608093910080919000C1
:1006E0008160809390008091A10082608093A1003E
:1006F0008091A10081608093A1008091A000816021
:100700008093A000809121018260809321018091DB
:10071000210181608093210180912001816080937B
:10072000200180917A00846080937A0080917A0021
:10073000826080937A0080917A00816080937A0051
:1007400080917A00806880937A001092C100E091D5
:100750005702F091580282E08083E0915302F091B9
:1007600054021082E0915502F09156028FEC808382
:1007700010925F02E0915B02F0915C0286E0808360
:10078000E0915902F0915A02808180618083E0916A
:100790005902F0915A02808188608083E091590269
:1007A000F0915A02808180688083E0915902F09133
:1007B0005A0280818F7D808385E192E00E94F5015D
:1007C00082E192E00E94F5016E018DE0C80ED11C1D
:1007D00087E492E00E9415010C970CF457C08E013B
:1007E0000F5F1F4F780187E492E00E941501892B6B
:1007F00059F0C016D10641F087E492E00E94F30060
:10080000F80181938F01EFCF8CE0F701A2E3B2E012
:1008100001900D928A95E1F7809132029091330216
:100820000E94690280913402909135020E9469020F
:1008300080913602909137020E94690280913802BD
:10084000909139020E94690280913A0290913B0294
:100850000E94690280913C0290913D020E946902CF
:1008600000913202109133028BE192E00E94F50177
:100870004AE061E070E080E090E00E94070289E2D7
:1008800092E00E94F501C8010E9469020E94BC0129
:100890009FCFE7E4F2E01382128288EE93E0A0E0BB
:1008A000B0E084839583A683B78384E092E091834C
:1008B000808385EC90E09587848784EC90E097872F
:1008C000868780EC90E0918B808B81EC90E0938B1D
:1008D000828B82EC90E0958B848B86EC90E0978BFA
:1008E000868B118E128E138E148E0895A1E21A2E0D
:1008F000AA1BBB1BFD010DC0AA1FBB1FEE1FFF1FC4
:10090000A217B307E407F50720F0A21BB30BE40B13
:10091000F50B661F771F881F991F1A9469F760955A
:100920007095809590959B01AC01BD01CF01089514
:10093000EE0FFF1F881F8BBF0790F691E02D1994D3
:0E09400081E090E0F8940C94A504F894FFCFA9
:10094E00000000004D01B600E4009A011501F3000D
:10095E0007010D0A005265616479004D6F76696E6C
:10096E0067206D6F746F72200020746F20706F732C
:02097E00200057
:00000001FF
